{
  "transactions": [
    {
      "hash": "0x16114b656f00905beedc2dda04198dad5d7bd63fa15c4f08cc26f2488cc201f3",
      "transactionType": "CALL",
      "contractName": null,
      "contractAddress": "0x0635513f179D50A207757E05759CbD106d7dFcE8",
      "function": "setApprovalForAll(address,bool)",
      "arguments": [
        "0xBB053293241f0880844C00f519989B4f38CC2142",
        "true"
      ],
      "transaction": {
        "type": "0x02",
        "from": "0xbbcdd0b478e9c2a34b779c27aa17db4ba7dba7cf",
        "to": "0x0635513f179d50a207757e05759cbd106d7dfce8",
        "gas": "0xf924",
        "value": "0x0",
        "data": "0xa22cb465000000000000000000000000bb053293241f0880844c00f519989b4f38cc21420000000000000000000000000000000000000000000000000000000000000001",
        "nonce": "0x17",
        "accessList": []
      },
      "additionalContracts": [],
      "isFixedGasLimit": false
    },
    {
      "hash": "0xfa2bec7e3bcd58d016145e0ca9d40c9eb8fc2064ffce22e88baf70bdd0be977d",
      "transactionType": "CALL",
      "contractName": "ENSRent",
      "contractAddress": "0xBB053293241f0880844C00f519989B4f38CC2142",
      "function": "listDomain(uint256,uint256,uint256,bytes32,string)",
      "arguments": [
        "10638269736029943326395597179347657150839377618630558927745253322545721771061",
        "1000000000",
        "1731892860",
        "0x1144e675a043ed5a1bf40bb68c9a3f67cd7bebe65c9c5bde6629022c8a95fd4d",
        "\"qualquercoisa\""
      ],
      "transaction": {
        "type": "0x02",
        "from": "0xbbcdd0b478e9c2a34b779c27aa17db4ba7dba7cf",
        "to": "0xbb053293241f0880844c00f519989b4f38cc2142",
        "gas": "0x4d464",
        "value": "0x0",
        "data": "0xc7df9ef417850c1b6023773db9b2d69601a4886de0d5e8d5840010a7403a995704bc0435000000000000000000000000000000000000000000000000000000003b9aca0000000000000000000000000000000000000000000000000000000000673a967c1144e675a043ed5a1bf40bb68c9a3f67cd7bebe65c9c5bde6629022c8a95fd4d00000000000000000000000000000000000000000000000000000000000000a0000000000000000000000000000000000000000000000000000000000000000d7175616c71756572636f69736100000000000000000000000000000000000000",
        "nonce": "0x18",
        "accessList": []
      },
      "additionalContracts": [],
      "isFixedGasLimit": false
    },
    {
      "hash": "0xe7ce535492969fb6be95230c535167e5fda353ff332e9c690ea4fdb1602c498c",
      "transactionType": "CALL",
      "contractName": "ENSRent",
      "contractAddress": "0xBB053293241f0880844C00f519989B4f38CC2142",
      "function": "rentDomain(uint256,uint256)",
      "arguments": [
        "10638269736029943326395597179347657150839377618630558927745253322545721771061",
        "1731892860"
      ],
      "transaction": {
        "type": "0x02",
        "from": "0xbbcdd0b478e9c2a34b779c27aa17db4ba7dba7cf",
        "to": "0xbb053293241f0880844c00f519989b4f38cc2142",
        "gas": "0x1cbc3",
        "value": "0x567039708000",
        "data": "0xb285149217850c1b6023773db9b2d69601a4886de0d5e8d5840010a7403a995704bc043500000000000000000000000000000000000000000000000000000000673a967c",
        "nonce": "0x19",
        "accessList": []
      },
      "additionalContracts": [],
      "isFixedGasLimit": false
    }
  ],
  "receipts": [
    {
      "transactionHash": "0x16114b656f00905beedc2dda04198dad5d7bd63fa15c4f08cc26f2488cc201f3",
      "transactionIndex": "0x3",
      "blockHash": "0x9090103be8c0d6252a9d1c360eba9c5f5a2771ce74c5f0ec90b6b60af086f54e",
      "blockNumber": "0x6c38a5",
      "from": "0xBbCdd0B478E9c2a34b779C27AA17Db4bA7DBa7cf",
      "to": "0x0635513f179D50A207757E05759CbD106d7dFcE8",
      "cumulativeGasUsed": "0x605ce",
      "gasUsed": "0xb460",
      "contractAddress": null,
      "logs": [
        {
          "address": "0x0635513f179D50A207757E05759CbD106d7dFcE8",
          "topics": [
            "0x17307eab39ab6107e8899845ad3d59bd9653f200f220920489ca2b5937696c31",
            "0x000000000000000000000000bbcdd0b478e9c2a34b779c27aa17db4ba7dba7cf",
            "0x000000000000000000000000bb053293241f0880844c00f519989b4f38cc2142"
          ],
          "data": "0x0000000000000000000000000000000000000000000000000000000000000001",
          "blockHash": "0x9090103be8c0d6252a9d1c360eba9c5f5a2771ce74c5f0ec90b6b60af086f54e",
          "blockNumber": "0x6c38a5",
          "transactionHash": "0x16114b656f00905beedc2dda04198dad5d7bd63fa15c4f08cc26f2488cc201f3",
          "transactionIndex": "0x3",
          "logIndex": "0x4",
          "removed": false
        }
      ],
      "status": "0x1",
      "logsBloom": "0x00000000000000400000000000000000000000000000020000000008000004000000000000000002000000000000000000000000000000000000000000000000000000000000000000000000000000000000000000000000000000000000000002000000000000000000000004000000000000000000000000000000000000000000000000000000000000000000000000000000000000000000000000000000000000000000000000040000000000000000000000000000000000000000000000000004000000000000000000000000000000000000000000000000000000000000200800000000000000000000000000000400000000000000000000000000",
      "type": "0x2",
      "effectiveGasPrice": "0xb2f12bdd"
    },
    {
      "transactionHash": "0xfa2bec7e3bcd58d016145e0ca9d40c9eb8fc2064ffce22e88baf70bdd0be977d",
      "transactionIndex": "0x2",
      "blockHash": "0xf0d2ecf0588f8e99013cb6d1d1354218bab4c456fa4422965a9e0f361bc0fd89",
      "blockNumber": "0x6c38a6",
      "from": "0xBbCdd0B478E9c2a34b779C27AA17Db4bA7DBa7cf",
      "to": "0xBB053293241f0880844C00f519989B4f38CC2142",
      "cumulativeGasUsed": "0xa17ce",
      "gasUsed": "0x37f20",
      "contractAddress": null,
      "logs": [
        {
          "address": "0x0635513f179D50A207757E05759CbD106d7dFcE8",
          "topics": [
            "0xc3d58168c5ae7397731d063d5bbf3d657854427343f4c083240f7aacaa2d0f62",
            "0x000000000000000000000000bb053293241f0880844c00f519989b4f38cc2142",
            "0x000000000000000000000000bbcdd0b478e9c2a34b779c27aa17db4ba7dba7cf",
            "0x000000000000000000000000bb053293241f0880844c00f519989b4f38cc2142"
          ],
          "data": "0x1144e675a043ed5a1bf40bb68c9a3f67cd7bebe65c9c5bde6629022c8a95fd4d0000000000000000000000000000000000000000000000000000000000000001",
          "blockHash": "0xf0d2ecf0588f8e99013cb6d1d1354218bab4c456fa4422965a9e0f361bc0fd89",
          "blockNumber": "0x6c38a6",
          "transactionHash": "0xfa2bec7e3bcd58d016145e0ca9d40c9eb8fc2064ffce22e88baf70bdd0be977d",
          "transactionIndex": "0x2",
          "logIndex": "0x2",
          "removed": false
        },
        {
          "address": "0x0635513f179D50A207757E05759CbD106d7dFcE8",
          "topics": [
            "0xc3d58168c5ae7397731d063d5bbf3d657854427343f4c083240f7aacaa2d0f62",
            "0x000000000000000000000000bb053293241f0880844c00f519989b4f38cc2142",
            "0x000000000000000000000000bb053293241f0880844c00f519989b4f38cc2142",
            "0x0000000000000000000000000000000000000000000000000000000000000000"
          ],
          "data": "0x1144e675a043ed5a1bf40bb68c9a3f67cd7bebe65c9c5bde6629022c8a95fd4d0000000000000000000000000000000000000000000000000000000000000001",
          "blockHash": "0xf0d2ecf0588f8e99013cb6d1d1354218bab4c456fa4422965a9e0f361bc0fd89",
          "blockNumber": "0x6c38a6",
          "transactionHash": "0xfa2bec7e3bcd58d016145e0ca9d40c9eb8fc2064ffce22e88baf70bdd0be977d",
          "transactionIndex": "0x2",
          "logIndex": "0x3",
          "removed": false
        },
        {
          "address": "0x00000000000C2E074eC69A0dFb2997BA6C7d2e1e",
          "topics": [
            "0xd4735d920b0f87494915f556dd9b54c8f309026070caea5c737245152564d266",
            "0x1144e675a043ed5a1bf40bb68c9a3f67cd7bebe65c9c5bde6629022c8a95fd4d"
          ],
          "data": "0x000000000000000000000000bb053293241f0880844c00f519989b4f38cc2142",
          "blockHash": "0xf0d2ecf0588f8e99013cb6d1d1354218bab4c456fa4422965a9e0f361bc0fd89",
          "blockNumber": "0x6c38a6",
          "transactionHash": "0xfa2bec7e3bcd58d016145e0ca9d40c9eb8fc2064ffce22e88baf70bdd0be977d",
          "transactionIndex": "0x2",
          "logIndex": "0x4",
          "removed": false
        },
        {
          "address": "0x0635513f179D50A207757E05759CbD106d7dFcE8",
          "topics": [
            "0xee2ba1195c65bcf218a83d874335c6bf9d9067b4c672f3c3bf16cf40de7586c4",
            "0x1144e675a043ed5a1bf40bb68c9a3f67cd7bebe65c9c5bde6629022c8a95fd4d"
          ],
          "data": "0x000000000000000000000000bb053293241f0880844c00f519989b4f38cc2142",
          "blockHash": "0xf0d2ecf0588f8e99013cb6d1d1354218bab4c456fa4422965a9e0f361bc0fd89",
          "blockNumber": "0x6c38a6",
          "transactionHash": "0xfa2bec7e3bcd58d016145e0ca9d40c9eb8fc2064ffce22e88baf70bdd0be977d",
          "transactionIndex": "0x2",
          "logIndex": "0x5",
          "removed": false
        },
        {
          "address": "0x57f1887a8BF19b14fC0dF6Fd9B2acc9Af147eA85",
          "topics": [
            "0xddf252ad1be2c89b69c2b068fc378daa952ba7f163c4a11628f55a4df523b3ef",
            "0x0000000000000000000000000635513f179d50a207757e05759cbd106d7dfce8",
            "0x000000000000000000000000bb053293241f0880844c00f519989b4f38cc2142",
            "0x17850c1b6023773db9b2d69601a4886de0d5e8d5840010a7403a995704bc0435"
          ],
          "data": "0x",
          "blockHash": "0xf0d2ecf0588f8e99013cb6d1d1354218bab4c456fa4422965a9e0f361bc0fd89",
          "blockNumber": "0x6c38a6",
          "transactionHash": "0xfa2bec7e3bcd58d016145e0ca9d40c9eb8fc2064ffce22e88baf70bdd0be977d",
          "transactionIndex": "0x2",
          "logIndex": "0x6",
          "removed": false
        },
        {
          "address": "0xBB053293241f0880844C00f519989B4f38CC2142",
          "topics": [
            "0xbcd1d5a42c68f9b5255c5990de3140ac89bf706411c2a1b5efa9d2e8e9fe9ea9",
            "0x17850c1b6023773db9b2d69601a4886de0d5e8d5840010a7403a995704bc0435",
            "0x000000000000000000000000bbcdd0b478e9c2a34b779c27aa17db4ba7dba7cf"
          ],
          "data": "0x0000000000000000000000000000000000000000000000000000000000000080000000000000000000000000000000000000000000000000000000003b9aca0000000000000000000000000000000000000000000000000000000000673a967c1144e675a043ed5a1bf40bb68c9a3f67cd7bebe65c9c5bde6629022c8a95fd4d000000000000000000000000000000000000000000000000000000000000000d7175616c71756572636f69736100000000000000000000000000000000000000",
          "blockHash": "0xf0d2ecf0588f8e99013cb6d1d1354218bab4c456fa4422965a9e0f361bc0fd89",
          "blockNumber": "0x6c38a6",
          "transactionHash": "0xfa2bec7e3bcd58d016145e0ca9d40c9eb8fc2064ffce22e88baf70bdd0be977d",
          "transactionIndex": "0x2",
          "logIndex": "0x7",
          "removed": false
        }
      ],
      "status": "0x1",
      "logsBloom": "0x00010000000000400000020000000000000000000100020000000008100004010000000000080002000000000000000200000000000000010000000000002000000080000000000000000008000000000002000000000000100000000000000000000000020000000000000004000800000000400000000000000010000000000000010000000000800100000000000000000008000000000000000000000000000000000000040000044000000000000000000000000000000000000000000000000006000000010002000000000000000002020008000020000000000020000000000000000000000000000100000000000400000000000000080000002020",
      "type": "0x2",
      "effectiveGasPrice": "0xb2f54515"
    },
    {
      "transactionHash": "0xe7ce535492969fb6be95230c535167e5fda353ff332e9c690ea4fdb1602c498c",
      "transactionIndex": "0x4",
      "blockHash": "0x567145133ddac1b5ec22c6348d0bff547ba0b9642e7215fd72a7304259e9ee3b",
      "blockNumber": "0x6c38a7",
      "from": "0xBbCdd0B478E9c2a34b779C27AA17Db4bA7DBa7cf",
      "to": "0xBB053293241f0880844C00f519989B4f38CC2142",
      "cumulativeGasUsed": "0x6ac51",
      "gasUsed": "0x14cdd",
      "contractAddress": null,
      "logs": [
        {
          "address": "0x00000000000C2E074eC69A0dFb2997BA6C7d2e1e",
          "topics": [
            "0xd4735d920b0f87494915f556dd9b54c8f309026070caea5c737245152564d266",
            "0x1144e675a043ed5a1bf40bb68c9a3f67cd7bebe65c9c5bde6629022c8a95fd4d"
          ],
          "data": "0x000000000000000000000000bbcdd0b478e9c2a34b779c27aa17db4ba7dba7cf",
          "blockHash": "0x567145133ddac1b5ec22c6348d0bff547ba0b9642e7215fd72a7304259e9ee3b",
          "blockNumber": "0x6c38a7",
          "transactionHash": "0xe7ce535492969fb6be95230c535167e5fda353ff332e9c690ea4fdb1602c498c",
          "transactionIndex": "0x4",
          "logIndex": "0x4",
          "removed": false
        },
        {
          "address": "0xBB053293241f0880844C00f519989B4f38CC2142",
          "topics": [
            "0x84d83ce8754352981ad0bbd600fc03161fb9bf3bc8e6e2e263cd082bb14cc0da",
            "0x17850c1b6023773db9b2d69601a4886de0d5e8d5840010a7403a995704bc0435",
            "0x000000000000000000000000bbcdd0b478e9c2a34b779c27aa17db4ba7dba7cf"
          ],
          "data": "0x00000000000000000000000000000000000000000000000000000000673a967c00000000000000000000000000000000000000000000000000004e83cdc63000000000000000000000000000000000000000000000000000000000003b9aca00",
          "blockHash": "0x567145133ddac1b5ec22c6348d0bff547ba0b9642e7215fd72a7304259e9ee3b",
          "blockNumber": "0x6c38a7",
          "transactionHash": "0xe7ce535492969fb6be95230c535167e5fda353ff332e9c690ea4fdb1602c498c",
          "transactionIndex": "0x4",
          "logIndex": "0x5",
          "removed": false
        }
      ],
      "status": "0x1",
      "logsBloom": "0x0000000000000000000002000000000000000000010000000000000000000000000000000000000200000000000000020000000000000000000000000000000000008000000000000000000000000000000a000000000000000000000000000000000000000000000000000000000000000000000000000000000000000000000000010000000000800100000000000000000008000000000000000000000000000000000000040000040000000000000000000000000000000000000000000000000004000000010000000000000000000000020008000000000040000000000000000000000000000000000100000000000000000000000000000000000020",
      "type": "0x2",
      "effectiveGasPrice": "0xb2f9d51b"
    }
  ],
  "libraries": [],
  "pending": [],
  "returns": {},
  "timestamp": 1731806537,
  "chain": 11155111,
  "commit": "741e44d"
}